{
  "_format": "hh-sol-artifact-1",
  "contractName": "Lottery",
  "sourceName": "contracts/HTSprize.sol",
  "abi": [
    {
      "inputs": [
        {
          "internalType": "address",
          "name": "tokenAddress_",
          "type": "address"
        },
        {
          "internalType": "address",
          "name": "prizeAddress_",
          "type": "address"
        },
        {
          "internalType": "address",
          "name": "feeAddress_",
          "type": "address"
        },
        {
          "internalType": "int64",
          "name": "priceTicket_",
          "type": "int64"
        },
        {
          "internalType": "uint256",
          "name": "endTime_",
          "type": "uint256"
        }
      ],
      "stateMutability": "nonpayable",
      "type": "constructor"
    },
    {
      "anonymous": false,
      "inputs": [
        {
          "indexed": false,
          "internalType": "string",
          "name": "msgType",
          "type": "string"
        },
        {
          "indexed": true,
          "internalType": "address",
          "name": "fromAddress",
          "type": "address"
        },
        {
          "indexed": false,
          "internalType": "uint256",
          "name": "amount",
          "type": "uint256"
        },
        {
          "indexed": false,
          "internalType": "string",
          "name": "message",
          "type": "string"
        }
      ],
      "name": "RaffleControllerMessage",
      "type": "event"
    },
    {
      "inputs": [
        {
          "internalType": "int64",
          "name": "_amount",
          "type": "int64"
        }
      ],
      "name": "addPrize",
      "outputs": [],
      "stateMutability": "nonpayable",
      "type": "function"
    },
    {
      "inputs": [],
      "name": "balance",
      "outputs": [
        {
          "internalType": "uint256",
          "name": "",
          "type": "uint256"
        }
      ],
      "stateMutability": "view",
      "type": "function"
    },
    {
      "inputs": [
        {
          "internalType": "int64",
          "name": "tokenAmount",
          "type": "int64"
        },
        {
          "internalType": "int64",
          "name": "ticketNumber",
          "type": "int64"
        }
      ],
      "name": "enter",
      "outputs": [],
      "stateMutability": "nonpayable",
      "type": "function"
    },
    {
      "inputs": [],
      "name": "getBalance",
      "outputs": [
        {
          "internalType": "uint256",
          "name": "",
          "type": "uint256"
        }
      ],
      "stateMutability": "view",
      "type": "function"
    },
    {
      "inputs": [],
      "name": "getPlayers",
      "outputs": [
        {
          "internalType": "address[]",
          "name": "",
          "type": "address[]"
        }
      ],
      "stateMutability": "view",
      "type": "function"
    },
    {
      "inputs": [],
      "name": "manager",
      "outputs": [
        {
          "internalType": "address",
          "name": "",
          "type": "address"
        }
      ],
      "stateMutability": "view",
      "type": "function"
    },
    {
      "inputs": [],
      "name": "pickWinner",
      "outputs": [],
      "stateMutability": "nonpayable",
      "type": "function"
    },
    {
      "inputs": [
        {
          "internalType": "uint256",
          "name": "",
          "type": "uint256"
        }
      ],
      "name": "players",
      "outputs": [
        {
          "internalType": "address",
          "name": "",
          "type": "address"
        }
      ],
      "stateMutability": "view",
      "type": "function"
    },
    {
      "inputs": [],
      "name": "tokenAsso",
      "outputs": [],
      "stateMutability": "nonpayable",
      "type": "function"
    },
    {
      "inputs": [],
      "name": "winner",
      "outputs": [
        {
          "internalType": "address",
          "name": "",
          "type": "address"
        }
      ],
      "stateMutability": "view",
      "type": "function"
    },
    {
      "inputs": [],
      "name": "withdraw",
      "outputs": [],
      "stateMutability": "nonpayable",
      "type": "function"
    }
  ],
  "bytecode": "0x60806040523480156200001157600080fd5b50604051620022ca380380620022ca8339818101604052810190620000379190620002b5565b846000806101000a81548173ffffffffffffffffffffffffffffffffffffffff021916908373ffffffffffffffffffffffffffffffffffffffff16021790555083600260006101000a81548173ffffffffffffffffffffffffffffffffffffffff021916908373ffffffffffffffffffffffffffffffffffffffff1602179055508060048190555082600160006101000a81548173ffffffffffffffffffffffffffffffffffffffff021916908373ffffffffffffffffffffffffffffffffffffffff16021790555081600560086101000a81548167ffffffffffffffff021916908360070b67ffffffffffffffff16021790555033600360006101000a81548173ffffffffffffffffffffffffffffffffffffffff021916908373ffffffffffffffffffffffffffffffffffffffff1602179055506000600360146101000a81548167ffffffffffffffff021916908360070b67ffffffffffffffff1602179055506000600560006101000a81548167ffffffffffffffff021916908360070b67ffffffffffffffff16021790555050505050506200033d565b600080fd5b600073ffffffffffffffffffffffffffffffffffffffff82169050919050565b60006200020482620001d7565b9050919050565b6200021681620001f7565b81146200022257600080fd5b50565b60008151905062000236816200020b565b92915050565b60008160070b9050919050565b62000254816200023c565b81146200026057600080fd5b50565b600081519050620002748162000249565b92915050565b6000819050919050565b6200028f816200027a565b81146200029b57600080fd5b50565b600081519050620002af8162000284565b92915050565b600080600080600060a08688031215620002d457620002d3620001d2565b5b6000620002e48882890162000225565b9550506020620002f78882890162000225565b94505060406200030a8882890162000225565b93505060606200031d8882890162000263565b925050608062000330888289016200029e565b9150509295509295909350565b611f7d806200034d6000396000f3fe608060405234801561001057600080fd5b50600436106100a95760003560e01c80638b5b9ccc116100715780638b5b9ccc1461011a5780639ddb520714610138578063b69ef8a814610154578063d1d125e814610172578063dfbf53ae1461017c578063f71d96cb1461019a576100a9565b806312065fe0146100ae578063164875d3146100cc5780633ccfd60b146100e8578063481c6a75146100f25780635d495aea14610110575b600080fd5b6100b66101ca565b6040516100c3919061116e565b60405180910390f35b6100e660048036038101906100e191906111c7565b61022c565b005b6100f0610481565b005b6100fa6106d0565b6040516101079190611248565b60405180910390f35b6101186106f6565b005b610122610a56565b60405161012f9190611321565b60405180910390f35b610152600480360381019061014d9190611343565b610ae4565b005b61015c610ce5565b604051610169919061116e565b60405180910390f35b61017a610ceb565b005b610184610ddf565b6040516101919190611248565b60405180910390f35b6101b460048036038101906101af919061139c565b610e05565b6040516101c19190611248565b60405180910390f35b6000600360009054906101000a900473ffffffffffffffffffffffffffffffffffffffff1673ffffffffffffffffffffffffffffffffffffffff163373ffffffffffffffffffffffffffffffffffffffff161461022657600080fd5b47905090565b600454421061023a57600080fd5b80600560089054906101000a900460070b61025591906113f8565b60070b8260070b121561026757600080fd5b600061029560008054906101000a900473ffffffffffffffffffffffffffffffffffffffff16333086610e44565b9050601660030b81146102dd576040517f08c379a00000000000000000000000000000000000000000000000000000000081526004016102d49061153c565b60405180910390fd5b60005b8260070b811215610361576006339080600181540180825580915050600190039060005260206000200160009091909190916101000a81548173ffffffffffffffffffffffffffffffffffffffff021916908373ffffffffffffffffffffffffffffffffffffffff160217905550808061035990611566565b9150506102e0565b503373ffffffffffffffffffffffffffffffffffffffff167f265aa29eff1f798745555c7127448d1acbb36a114e190f8ad0b2fec7ed25cae0836040516103a89190611696565b60405180910390a260005b8260070b811215610434576006339080600181540180825580915050600190039060005260206000200160009091909190916101000a81548173ffffffffffffffffffffffffffffffffffffffff021916908373ffffffffffffffffffffffffffffffffffffffff160217905550808061042c90611566565b9150506103b3565b5082600360148282829054906101000a900460070b61045391906116d7565b92506101000a81548167ffffffffffffffff021916908360070b67ffffffffffffffff160217905550505050565b600454421161048f57600080fd5b600360009054906101000a900473ffffffffffffffffffffffffffffffffffffffff1673ffffffffffffffffffffffffffffffffffffffff163373ffffffffffffffffffffffffffffffffffffffff16146104e957600080fd5b600061053e60008054906101000a900473ffffffffffffffffffffffffffffffffffffffff1630336064605f600360149054906101000a900460070b61052f91906113f8565b6105399190611782565b610e44565b9050601660030b8114610586576040517f08c379a000000000000000000000000000000000000000000000000000000000815260040161057d90611838565b60405180910390fd5b6105fb60008054906101000a900473ffffffffffffffffffffffffffffffffffffffff1630600160009054906101000a900473ffffffffffffffffffffffffffffffffffffffff1660646005600360149054906101000a900460070b6105ec91906113f8565b6105f69190611782565b610e44565b9050601660030b8114610643576040517f08c379a000000000000000000000000000000000000000000000000000000000815260040161063a90611838565b60405180910390fd5b3373ffffffffffffffffffffffffffffffffffffffff167f265aa29eff1f798745555c7127448d1acbb36a114e190f8ad0b2fec7ed25cae0600360149054906101000a900460070b60405161069891906118f0565b60405180910390a26000600360146101000a81548167ffffffffffffffff021916908360070b67ffffffffffffffff16021790555050565b600360009054906101000a900473ffffffffffffffffffffffffffffffffffffffff1681565b600454421161070457600080fd5b600360009054906101000a900473ffffffffffffffffffffffffffffffffffffffff1673ffffffffffffffffffffffffffffffffffffffff163373ffffffffffffffffffffffffffffffffffffffff161461075e57600080fd5b60008060068054905061076f610f62565b6107799190611931565b90506006818154811061078f5761078e611962565b5b9060005260206000200160009054906101000a900473ffffffffffffffffffffffffffffffffffffffff16600760006101000a81548173ffffffffffffffffffffffffffffffffffffffff021916908373ffffffffffffffffffffffffffffffffffffffff16021790555061086f60008054906101000a900473ffffffffffffffffffffffffffffffffffffffff1630600760009054906101000a900473ffffffffffffffffffffffffffffffffffffffff166064605f600560009054906101000a900460070b61086091906113f8565b61086a9190611782565b610e44565b9150601660030b82146108b7576040517f08c379a00000000000000000000000000000000000000000000000000000000081526004016108ae90611838565b60405180910390fd5b61092b60008054906101000a900473ffffffffffffffffffffffffffffffffffffffff1630600160009054906101000a900473ffffffffffffffffffffffffffffffffffffffff16606460058060009054906101000a900460070b61091c91906113f8565b6109269190611782565b610e44565b9150601660030b8214610973576040517f08c379a000000000000000000000000000000000000000000000000000000000815260040161096a90611838565b60405180910390fd5b600760009054906101000a900473ffffffffffffffffffffffffffffffffffffffff1673ffffffffffffffffffffffffffffffffffffffff167f265aa29eff1f798745555c7127448d1acbb36a114e190f8ad0b2fec7ed25cae0600560009054906101000a900460070b6040516109ea9190611a29565b60405180910390a2600067ffffffffffffffff811115610a0d57610a0c611a6a565b5b604051908082528060200260200182016040528015610a3b5781602001602082028036833780820191505090505b5060069080519060200190610a519291906110ae565b505050565b60606006805480602002602001604051908101604052809291908181526020018280548015610ada57602002820191906000526020600020905b8160009054906101000a900473ffffffffffffffffffffffffffffffffffffffff1673ffffffffffffffffffffffffffffffffffffffff1681526020019060010190808311610a90575b5050505050905090565b600360009054906101000a900473ffffffffffffffffffffffffffffffffffffffff1673ffffffffffffffffffffffffffffffffffffffff163373ffffffffffffffffffffffffffffffffffffffff1614610b3e57600080fd5b6000610b6c30600260009054906101000a900473ffffffffffffffffffffffffffffffffffffffff16610f96565b9050601660030b8114610bb4576040517f08c379a0000000000000000000000000000000000000000000000000000000008152600401610bab90611838565b60405180910390fd5b610be2600260009054906101000a900473ffffffffffffffffffffffffffffffffffffffff16333085610e44565b9050601660030b8114610c2a576040517f08c379a0000000000000000000000000000000000000000000000000000000008152600401610c2190611ae5565b60405180910390fd5b600260009054906101000a900473ffffffffffffffffffffffffffffffffffffffff1673ffffffffffffffffffffffffffffffffffffffff167f265aa29eff1f798745555c7127448d1acbb36a114e190f8ad0b2fec7ed25cae083604051610c929190611b9d565b60405180910390a281600560008282829054906101000a900460070b610cb891906116d7565b92506101000a81548167ffffffffffffffff021916908360070b67ffffffffffffffff1602179055505050565b60085481565b6000610d173060008054906101000a900473ffffffffffffffffffffffffffffffffffffffff16610f96565b9050601660030b8114610d5f576040517f08c379a0000000000000000000000000000000000000000000000000000000008152600401610d5690611838565b60405180910390fd5b60008054906101000a900473ffffffffffffffffffffffffffffffffffffffff1673ffffffffffffffffffffffffffffffffffffffff167f265aa29eff1f798745555c7127448d1acbb36a114e190f8ad0b2fec7ed25cae0600360149054906101000a900460070b604051610dd49190611c76565b60405180910390a250565b600760009054906101000a900473ffffffffffffffffffffffffffffffffffffffff1681565b60068181548110610e1557600080fd5b906000526020600020016000915054906101000a900473ffffffffffffffffffffffffffffffffffffffff1681565b600080600061016773ffffffffffffffffffffffffffffffffffffffff1663eca3691760e01b88888888604051602401610e819493929190611cc6565b604051602081830303815290604052907bffffffffffffffffffffffffffffffffffffffffffffffffffffffff19166020820180517bffffffffffffffffffffffffffffffffffffffffffffffffffffffff8381831617835250505050604051610eeb9190611d85565b6000604051808303816000865af19150503d8060008114610f28576040519150601f19603f3d011682016040523d82523d6000602084013e610f2d565b606091505b509150915081610f3e576015610f53565b80806020019051810190610f529190611dd5565b5b60030b92505050949350505050565b6000426006604051602001610f78929190611eee565b6040516020818303038152906040528051906020012060001c905090565b600080600061016773ffffffffffffffffffffffffffffffffffffffff166349146bde60e01b8686604051602401610fcf929190611f1e565b604051602081830303815290604052907bffffffffffffffffffffffffffffffffffffffffffffffffffffffff19166020820180517bffffffffffffffffffffffffffffffffffffffffffffffffffffffff83818316178352505050506040516110399190611d85565b6000604051808303816000865af19150503d8060008114611076576040519150601f19603f3d011682016040523d82523d6000602084013e61107b565b606091505b50915091508161108c5760156110a1565b808060200190518101906110a09190611dd5565b5b60030b9250505092915050565b828054828255906000526020600020908101928215611127579160200282015b828111156111265782518260006101000a81548173ffffffffffffffffffffffffffffffffffffffff021916908373ffffffffffffffffffffffffffffffffffffffff160217905550916020019190600101906110ce565b5b5090506111349190611138565b5090565b5b80821115611151576000816000905550600101611139565b5090565b6000819050919050565b61116881611155565b82525050565b6000602082019050611183600083018461115f565b92915050565b600080fd5b60008160070b9050919050565b6111a48161118e565b81146111af57600080fd5b50565b6000813590506111c18161119b565b92915050565b600080604083850312156111de576111dd611189565b5b60006111ec858286016111b2565b92505060206111fd858286016111b2565b9150509250929050565b600073ffffffffffffffffffffffffffffffffffffffff82169050919050565b600061123282611207565b9050919050565b61124281611227565b82525050565b600060208201905061125d6000830184611239565b92915050565b600081519050919050565b600082825260208201905092915050565b6000819050602082019050919050565b61129881611227565b82525050565b60006112aa838361128f565b60208301905092915050565b6000602082019050919050565b60006112ce82611263565b6112d8818561126e565b93506112e38361127f565b8060005b838110156113145781516112fb888261129e565b9750611306836112b6565b9250506001810190506112e7565b5085935050505092915050565b6000602082019050818103600083015261133b81846112c3565b905092915050565b60006020828403121561135957611358611189565b5b6000611367848285016111b2565b91505092915050565b61137981611155565b811461138457600080fd5b50565b60008135905061139681611370565b92915050565b6000602082840312156113b2576113b1611189565b5b60006113c084828501611387565b91505092915050565b7f4e487b7100000000000000000000000000000000000000000000000000000000600052601160045260246000fd5b60006114038261118e565b915061140e8361118e565b925082677fffffffffffffff0482116000841360008413161615611435576114346113c9565b5b817fffffffffffffffffffffffffffffffffffffffffffffffff80000000000000000583126000841260008413161615611472576114716113c9565b5b827fffffffffffffffffffffffffffffffffffffffffffffffff800000000000000005821260008413600084121616156114af576114ae6113c9565b5b82677fffffffffffffff05821260008412600084121616156114d4576114d36113c9565b5b828202905092915050565b600082825260208201905092915050565b7f5075726368617365204661696c65640000000000000000000000000000000000600082015250565b6000611526600f836114df565b9150611531826114f0565b602082019050919050565b6000602082019050818103600083015261155581611519565b9050919050565b6000819050919050565b60006115718261155c565b91507f7fffffffffffffffffffffffffffffffffffffffffffffffffffffffffffffff8214156115a4576115a36113c9565b5b600182019050919050565b7f454e544552000000000000000000000000000000000000000000000000000000600082015250565b60006115e56005836114df565b91506115f0826115af565b602082019050919050565b600067ffffffffffffffff82169050919050565b6000819050919050565b600061163461162f61162a846115fb565b61160f565b611155565b9050919050565b61164481611619565b82525050565b7f507572636861736564205469636b657473000000000000000000000000000000600082015250565b60006116806011836114df565b915061168b8261164a565b602082019050919050565b600060608201905081810360008301526116af816115d8565b90506116be602083018461163b565b81810360408301526116cf81611673565b905092915050565b60006116e28261118e565b91506116ed8361118e565b925081677fffffffffffffff038313600083121516156117105761170f6113c9565b5b817fffffffffffffffffffffffffffffffffffffffffffffffff8000000000000000038312600083121615611748576117476113c9565b5b828201905092915050565b7f4e487b7100000000000000000000000000000000000000000000000000000000600052601260045260246000fd5b600061178d8261118e565b91506117988361118e565b9250826117a8576117a7611753565b5b600160000383147fffffffffffffffffffffffffffffffffffffffffffffffff8000000000000000831416156117e1576117e06113c9565b5b828205905092915050565b7f4173736f6369617465204661696c656400000000000000000000000000000000600082015250565b60006118226010836114df565b915061182d826117ec565b602082019050919050565b6000602082019050818103600083015261185181611815565b9050919050565b7f434c41494d454400000000000000000000000000000000000000000000000000600082015250565b600061188e6007836114df565b915061189982611858565b602082019050919050565b7f5469636b65742066756e64732068617665206265656e20636c61696d65642100600082015250565b60006118da601f836114df565b91506118e5826118a4565b602082019050919050565b6000606082019050818103600083015261190981611881565b9050611918602083018461163b565b8181036040830152611929816118cd565b905092915050565b600061193c82611155565b915061194783611155565b92508261195757611956611753565b5b828206905092915050565b7f4e487b7100000000000000000000000000000000000000000000000000000000600052603260045260246000fd5b7f57494e4e45520000000000000000000000000000000000000000000000000000600082015250565b60006119c76006836114df565b91506119d282611991565b602082019050919050565b7f5069636b65642057696e6e657200000000000000000000000000000000000000600082015250565b6000611a13600d836114df565b9150611a1e826119dd565b602082019050919050565b60006060820190508181036000830152611a42816119ba565b9050611a51602083018461163b565b8181036040830152611a6281611a06565b905092915050565b7f4e487b7100000000000000000000000000000000000000000000000000000000600052604160045260246000fd5b7f5472616e73666572204661696c65640000000000000000000000000000000000600082015250565b6000611acf600f836114df565b9150611ada82611a99565b602082019050919050565b60006020820190508181036000830152611afe81611ac2565b9050919050565b7f5052495a45204144444544000000000000000000000000000000000000000000600082015250565b6000611b3b600b836114df565b9150611b4682611b05565b602082019050919050565b7f5072697a65206173736f63696174656420616e642061646465642e0000000000600082015250565b6000611b87601b836114df565b9150611b9282611b51565b602082019050919050565b60006060820190508181036000830152611bb681611b2e565b9050611bc5602083018461163b565b8181036040830152611bd681611b7a565b905092915050565b7f4153534f43494154454400000000000000000000000000000000000000000000600082015250565b6000611c14600a836114df565b9150611c1f82611bde565b602082019050919050565b7f5469636b657420507269636520546f6b656e204173736f636961746564000000600082015250565b6000611c60601d836114df565b9150611c6b82611c2a565b602082019050919050565b60006060820190508181036000830152611c8f81611c07565b9050611c9e602083018461163b565b8181036040830152611caf81611c53565b905092915050565b611cc08161118e565b82525050565b6000608082019050611cdb6000830187611239565b611ce86020830186611239565b611cf56040830185611239565b611d026060830184611cb7565b95945050505050565b600081519050919050565b600081905092915050565b60005b83811015611d3f578082015181840152602081019050611d24565b83811115611d4e576000848401525b50505050565b6000611d5f82611d0b565b611d698185611d16565b9350611d79818560208601611d21565b80840191505092915050565b6000611d918284611d54565b915081905092915050565b60008160030b9050919050565b611db281611d9c565b8114611dbd57600080fd5b50565b600081519050611dcf81611da9565b92915050565b600060208284031215611deb57611dea611189565b5b6000611df984828501611dc0565b91505092915050565b600081549050919050565b60008190508160005260206000209050919050565b60008160001c9050919050565b600073ffffffffffffffffffffffffffffffffffffffff82169050919050565b6000611e62611e5d83611e22565b611e2f565b9050919050565b6000611e758254611e4f565b9050919050565b6000600182019050919050565b6000611e9482611e02565b611e9e818561126e565b9350611ea983611e0d565b8060005b83811015611ee157611ebe82611e69565b611ec8888261129e565b9750611ed383611e7c565b925050600181019050611ead565b5085935050505092915050565b6000604082019050611f03600083018561115f565b8181036020830152611f158184611e89565b90509392505050565b6000604082019050611f336000830185611239565b611f406020830184611239565b939250505056fea2646970667358221220068ca446c43618be3faf327b41693879ef714d7ad47ef97589ed38a2d5d0453664736f6c634300080b0033",
  "linkReferences": {},
  "deployedLinkReferences": {}
}