{
  "_format": "hh-sol-artifact-1",
  "contractName": "Lottery",
  "sourceName": "contracts/HTSprize.sol",
  "abi": [
    {
      "inputs": [
        {
          "internalType": "address",
          "name": "tokenAddress_",
          "type": "address"
        },
        {
          "internalType": "address",
          "name": "prizeAddress_",
          "type": "address"
        },
        {
          "internalType": "address",
          "name": "feeAddress_",
          "type": "address"
        },
        {
          "internalType": "int64",
          "name": "priceTicket_",
          "type": "int64"
        },
        {
          "internalType": "uint256",
          "name": "endTime_",
          "type": "uint256"
        }
      ],
      "stateMutability": "nonpayable",
      "type": "constructor"
    },
    {
      "anonymous": false,
      "inputs": [
        {
          "indexed": false,
          "internalType": "string",
          "name": "msgType",
          "type": "string"
        },
        {
          "indexed": true,
          "internalType": "address",
          "name": "fromAddress",
          "type": "address"
        },
        {
          "indexed": false,
          "internalType": "uint256",
          "name": "amount",
          "type": "uint256"
        },
        {
          "indexed": false,
          "internalType": "uint256",
          "name": "date",
          "type": "uint256"
        },
        {
          "indexed": false,
          "internalType": "string",
          "name": "message",
          "type": "string"
        }
      ],
      "name": "RaffleControllerMessage",
      "type": "event"
    },
    {
      "inputs": [
        {
          "internalType": "int64",
          "name": "_amount",
          "type": "int64"
        }
      ],
      "name": "addPrize",
      "outputs": [],
      "stateMutability": "nonpayable",
      "type": "function"
    },
    {
      "inputs": [],
      "name": "balance",
      "outputs": [
        {
          "internalType": "uint256",
          "name": "",
          "type": "uint256"
        }
      ],
      "stateMutability": "view",
      "type": "function"
    },
    {
      "inputs": [
        {
          "internalType": "int64",
          "name": "tokenAmount",
          "type": "int64"
        },
        {
          "internalType": "int64",
          "name": "ticketNumber",
          "type": "int64"
        }
      ],
      "name": "enter",
      "outputs": [],
      "stateMutability": "nonpayable",
      "type": "function"
    },
    {
      "inputs": [],
      "name": "getBalance",
      "outputs": [
        {
          "internalType": "uint256",
          "name": "",
          "type": "uint256"
        }
      ],
      "stateMutability": "view",
      "type": "function"
    },
    {
      "inputs": [],
      "name": "getPlayers",
      "outputs": [
        {
          "internalType": "address[]",
          "name": "",
          "type": "address[]"
        }
      ],
      "stateMutability": "view",
      "type": "function"
    },
    {
      "inputs": [],
      "name": "manager",
      "outputs": [
        {
          "internalType": "address",
          "name": "",
          "type": "address"
        }
      ],
      "stateMutability": "view",
      "type": "function"
    },
    {
      "inputs": [],
      "name": "pickWinner",
      "outputs": [],
      "stateMutability": "nonpayable",
      "type": "function"
    },
    {
      "inputs": [
        {
          "internalType": "uint256",
          "name": "",
          "type": "uint256"
        }
      ],
      "name": "players",
      "outputs": [
        {
          "internalType": "address",
          "name": "",
          "type": "address"
        }
      ],
      "stateMutability": "view",
      "type": "function"
    },
    {
      "inputs": [],
      "name": "tokenAsso",
      "outputs": [],
      "stateMutability": "nonpayable",
      "type": "function"
    },
    {
      "inputs": [],
      "name": "winner",
      "outputs": [
        {
          "internalType": "address",
          "name": "",
          "type": "address"
        }
      ],
      "stateMutability": "view",
      "type": "function"
    },
    {
      "inputs": [],
      "name": "withdraw",
      "outputs": [],
      "stateMutability": "nonpayable",
      "type": "function"
    }
  ],
  "bytecode": "0x60806040523480156200001157600080fd5b506040516200231a3803806200231a8339818101604052810190620000379190620002b5565b846000806101000a81548173ffffffffffffffffffffffffffffffffffffffff021916908373ffffffffffffffffffffffffffffffffffffffff16021790555083600260006101000a81548173ffffffffffffffffffffffffffffffffffffffff021916908373ffffffffffffffffffffffffffffffffffffffff1602179055508060048190555082600160006101000a81548173ffffffffffffffffffffffffffffffffffffffff021916908373ffffffffffffffffffffffffffffffffffffffff16021790555081600560086101000a81548167ffffffffffffffff021916908360070b67ffffffffffffffff16021790555033600360006101000a81548173ffffffffffffffffffffffffffffffffffffffff021916908373ffffffffffffffffffffffffffffffffffffffff1602179055506000600360146101000a81548167ffffffffffffffff021916908360070b67ffffffffffffffff1602179055506000600560006101000a81548167ffffffffffffffff021916908360070b67ffffffffffffffff16021790555050505050506200033d565b600080fd5b600073ffffffffffffffffffffffffffffffffffffffff82169050919050565b60006200020482620001d7565b9050919050565b6200021681620001f7565b81146200022257600080fd5b50565b60008151905062000236816200020b565b92915050565b60008160070b9050919050565b62000254816200023c565b81146200026057600080fd5b50565b600081519050620002748162000249565b92915050565b6000819050919050565b6200028f816200027a565b81146200029b57600080fd5b50565b600081519050620002af8162000284565b92915050565b600080600080600060a08688031215620002d457620002d3620001d2565b5b6000620002e48882890162000225565b9550506020620002f78882890162000225565b94505060406200030a8882890162000225565b93505060606200031d8882890162000263565b925050608062000330888289016200029e565b9150509295509295909350565b611fcd806200034d6000396000f3fe608060405234801561001057600080fd5b50600436106100a95760003560e01c80638b5b9ccc116100715780638b5b9ccc1461011a5780639ddb520714610138578063b69ef8a814610154578063d1d125e814610172578063dfbf53ae1461017c578063f71d96cb1461019a576100a9565b806312065fe0146100ae578063164875d3146100cc5780633ccfd60b146100e8578063481c6a75146100f25780635d495aea14610110575b600080fd5b6100b66101ca565b6040516100c39190611178565b60405180910390f35b6100e660048036038101906100e191906111d1565b61022c565b005b6100f0610483565b005b6100fa6106d4565b6040516101079190611252565b60405180910390f35b6101186106fa565b005b610122610a5c565b60405161012f919061132b565b60405180910390f35b610152600480360381019061014d919061134d565b610aea565b005b61015c610ced565b6040516101699190611178565b60405180910390f35b61017a610cf3565b005b610184610de9565b6040516101919190611252565b60405180910390f35b6101b460048036038101906101af91906113a6565b610e0f565b6040516101c19190611252565b60405180910390f35b6000600360009054906101000a900473ffffffffffffffffffffffffffffffffffffffff1673ffffffffffffffffffffffffffffffffffffffff163373ffffffffffffffffffffffffffffffffffffffff161461022657600080fd5b47905090565b600454421061023a57600080fd5b80600560089054906101000a900460070b6102559190611402565b60070b8260070b121561026757600080fd5b600061029560008054906101000a900473ffffffffffffffffffffffffffffffffffffffff16333086610e4e565b9050601660030b81146102dd576040517f08c379a00000000000000000000000000000000000000000000000000000000081526004016102d490611546565b60405180910390fd5b60005b8260070b811215610361576006339080600181540180825580915050600190039060005260206000200160009091909190916101000a81548173ffffffffffffffffffffffffffffffffffffffff021916908373ffffffffffffffffffffffffffffffffffffffff160217905550808061035990611570565b9150506102e0565b503373ffffffffffffffffffffffffffffffffffffffff167f41dc271eb2e384681f8a24d9c13fdd1dfdb7281798475b804962afd01c17c65383426040516103aa9291906116a0565b60405180910390a260005b8260070b811215610436576006339080600181540180825580915050600190039060005260206000200160009091909190916101000a81548173ffffffffffffffffffffffffffffffffffffffff021916908373ffffffffffffffffffffffffffffffffffffffff160217905550808061042e90611570565b9150506103b5565b5082600360148282829054906101000a900460070b61045591906116ef565b92506101000a81548167ffffffffffffffff021916908360070b67ffffffffffffffff160217905550505050565b600454421161049157600080fd5b600360009054906101000a900473ffffffffffffffffffffffffffffffffffffffff1673ffffffffffffffffffffffffffffffffffffffff163373ffffffffffffffffffffffffffffffffffffffff16146104eb57600080fd5b600061054060008054906101000a900473ffffffffffffffffffffffffffffffffffffffff1630336064605f600360149054906101000a900460070b6105319190611402565b61053b919061179a565b610e4e565b9050601660030b8114610588576040517f08c379a000000000000000000000000000000000000000000000000000000000815260040161057f90611850565b60405180910390fd5b6105fd60008054906101000a900473ffffffffffffffffffffffffffffffffffffffff1630600160009054906101000a900473ffffffffffffffffffffffffffffffffffffffff1660646005600360149054906101000a900460070b6105ee9190611402565b6105f8919061179a565b610e4e565b9050601660030b8114610645576040517f08c379a000000000000000000000000000000000000000000000000000000000815260040161063c90611850565b60405180910390fd5b3373ffffffffffffffffffffffffffffffffffffffff167f41dc271eb2e384681f8a24d9c13fdd1dfdb7281798475b804962afd01c17c653600360149054906101000a900460070b4260405161069c929190611908565b60405180910390a26000600360146101000a81548167ffffffffffffffff021916908360070b67ffffffffffffffff16021790555050565b600360009054906101000a900473ffffffffffffffffffffffffffffffffffffffff1681565b600454421161070857600080fd5b600360009054906101000a900473ffffffffffffffffffffffffffffffffffffffff1673ffffffffffffffffffffffffffffffffffffffff163373ffffffffffffffffffffffffffffffffffffffff161461076257600080fd5b600080600680549050610773610f6c565b61077d9190611957565b90506006818154811061079357610792611988565b5b9060005260206000200160009054906101000a900473ffffffffffffffffffffffffffffffffffffffff16600760006101000a81548173ffffffffffffffffffffffffffffffffffffffff021916908373ffffffffffffffffffffffffffffffffffffffff16021790555061087360008054906101000a900473ffffffffffffffffffffffffffffffffffffffff1630600760009054906101000a900473ffffffffffffffffffffffffffffffffffffffff166064605f600560009054906101000a900460070b6108649190611402565b61086e919061179a565b610e4e565b9150601660030b82146108bb576040517f08c379a00000000000000000000000000000000000000000000000000000000081526004016108b290611850565b60405180910390fd5b61092f60008054906101000a900473ffffffffffffffffffffffffffffffffffffffff1630600160009054906101000a900473ffffffffffffffffffffffffffffffffffffffff16606460058060009054906101000a900460070b6109209190611402565b61092a919061179a565b610e4e565b9150601660030b8214610977576040517f08c379a000000000000000000000000000000000000000000000000000000000815260040161096e90611850565b60405180910390fd5b600760009054906101000a900473ffffffffffffffffffffffffffffffffffffffff1673ffffffffffffffffffffffffffffffffffffffff167f41dc271eb2e384681f8a24d9c13fdd1dfdb7281798475b804962afd01c17c653600560009054906101000a900460070b426040516109f0929190611a4f565b60405180910390a2600067ffffffffffffffff811115610a1357610a12611a9e565b5b604051908082528060200260200182016040528015610a415781602001602082028036833780820191505090505b5060069080519060200190610a579291906110b8565b505050565b60606006805480602002602001604051908101604052809291908181526020018280548015610ae057602002820191906000526020600020905b8160009054906101000a900473ffffffffffffffffffffffffffffffffffffffff1673ffffffffffffffffffffffffffffffffffffffff1681526020019060010190808311610a96575b5050505050905090565b600360009054906101000a900473ffffffffffffffffffffffffffffffffffffffff1673ffffffffffffffffffffffffffffffffffffffff163373ffffffffffffffffffffffffffffffffffffffff1614610b4457600080fd5b6000610b7230600260009054906101000a900473ffffffffffffffffffffffffffffffffffffffff16610fa0565b9050601660030b8114610bba576040517f08c379a0000000000000000000000000000000000000000000000000000000008152600401610bb190611850565b60405180910390fd5b610be8600260009054906101000a900473ffffffffffffffffffffffffffffffffffffffff16333085610e4e565b9050601660030b8114610c30576040517f08c379a0000000000000000000000000000000000000000000000000000000008152600401610c2790611b19565b60405180910390fd5b600260009054906101000a900473ffffffffffffffffffffffffffffffffffffffff1673ffffffffffffffffffffffffffffffffffffffff167f41dc271eb2e384681f8a24d9c13fdd1dfdb7281798475b804962afd01c17c6538342604051610c9a929190611bd1565b60405180910390a281600560008282829054906101000a900460070b610cc091906116ef565b92506101000a81548167ffffffffffffffff021916908360070b67ffffffffffffffff1602179055505050565b60085481565b6000610d1f3060008054906101000a900473ffffffffffffffffffffffffffffffffffffffff16610fa0565b9050601660030b8114610d67576040517f08c379a0000000000000000000000000000000000000000000000000000000008152600401610d5e90611850565b60405180910390fd5b60008054906101000a900473ffffffffffffffffffffffffffffffffffffffff1673ffffffffffffffffffffffffffffffffffffffff167f41dc271eb2e384681f8a24d9c13fdd1dfdb7281798475b804962afd01c17c653600360149054906101000a900460070b42604051610dde929190611cb8565b60405180910390a250565b600760009054906101000a900473ffffffffffffffffffffffffffffffffffffffff1681565b60068181548110610e1f57600080fd5b906000526020600020016000915054906101000a900473ffffffffffffffffffffffffffffffffffffffff1681565b600080600061016773ffffffffffffffffffffffffffffffffffffffff1663eca3691760e01b88888888604051602401610e8b9493929190611d16565b604051602081830303815290604052907bffffffffffffffffffffffffffffffffffffffffffffffffffffffff19166020820180517bffffffffffffffffffffffffffffffffffffffffffffffffffffffff8381831617835250505050604051610ef59190611dd5565b6000604051808303816000865af19150503d8060008114610f32576040519150601f19603f3d011682016040523d82523d6000602084013e610f37565b606091505b509150915081610f48576015610f5d565b80806020019051810190610f5c9190611e25565b5b60030b92505050949350505050565b6000426006604051602001610f82929190611f3e565b6040516020818303038152906040528051906020012060001c905090565b600080600061016773ffffffffffffffffffffffffffffffffffffffff166349146bde60e01b8686604051602401610fd9929190611f6e565b604051602081830303815290604052907bffffffffffffffffffffffffffffffffffffffffffffffffffffffff19166020820180517bffffffffffffffffffffffffffffffffffffffffffffffffffffffff83818316178352505050506040516110439190611dd5565b6000604051808303816000865af19150503d8060008114611080576040519150601f19603f3d011682016040523d82523d6000602084013e611085565b606091505b5091509150816110965760156110ab565b808060200190518101906110aa9190611e25565b5b60030b9250505092915050565b828054828255906000526020600020908101928215611131579160200282015b828111156111305782518260006101000a81548173ffffffffffffffffffffffffffffffffffffffff021916908373ffffffffffffffffffffffffffffffffffffffff160217905550916020019190600101906110d8565b5b50905061113e9190611142565b5090565b5b8082111561115b576000816000905550600101611143565b5090565b6000819050919050565b6111728161115f565b82525050565b600060208201905061118d6000830184611169565b92915050565b600080fd5b60008160070b9050919050565b6111ae81611198565b81146111b957600080fd5b50565b6000813590506111cb816111a5565b92915050565b600080604083850312156111e8576111e7611193565b5b60006111f6858286016111bc565b9250506020611207858286016111bc565b9150509250929050565b600073ffffffffffffffffffffffffffffffffffffffff82169050919050565b600061123c82611211565b9050919050565b61124c81611231565b82525050565b60006020820190506112676000830184611243565b92915050565b600081519050919050565b600082825260208201905092915050565b6000819050602082019050919050565b6112a281611231565b82525050565b60006112b48383611299565b60208301905092915050565b6000602082019050919050565b60006112d88261126d565b6112e28185611278565b93506112ed83611289565b8060005b8381101561131e57815161130588826112a8565b9750611310836112c0565b9250506001810190506112f1565b5085935050505092915050565b6000602082019050818103600083015261134581846112cd565b905092915050565b60006020828403121561136357611362611193565b5b6000611371848285016111bc565b91505092915050565b6113838161115f565b811461138e57600080fd5b50565b6000813590506113a08161137a565b92915050565b6000602082840312156113bc576113bb611193565b5b60006113ca84828501611391565b91505092915050565b7f4e487b7100000000000000000000000000000000000000000000000000000000600052601160045260246000fd5b600061140d82611198565b915061141883611198565b925082677fffffffffffffff048211600084136000841316161561143f5761143e6113d3565b5b817fffffffffffffffffffffffffffffffffffffffffffffffff8000000000000000058312600084126000841316161561147c5761147b6113d3565b5b827fffffffffffffffffffffffffffffffffffffffffffffffff800000000000000005821260008413600084121616156114b9576114b86113d3565b5b82677fffffffffffffff05821260008412600084121616156114de576114dd6113d3565b5b828202905092915050565b600082825260208201905092915050565b7f5075726368617365204661696c65640000000000000000000000000000000000600082015250565b6000611530600f836114e9565b915061153b826114fa565b602082019050919050565b6000602082019050818103600083015261155f81611523565b9050919050565b6000819050919050565b600061157b82611566565b91507f7fffffffffffffffffffffffffffffffffffffffffffffffffffffffffffffff8214156115ae576115ad6113d3565b5b600182019050919050565b7f454e544552000000000000000000000000000000000000000000000000000000600082015250565b60006115ef6005836114e9565b91506115fa826115b9565b602082019050919050565b600067ffffffffffffffff82169050919050565b6000819050919050565b600061163e61163961163484611605565b611619565b61115f565b9050919050565b61164e81611623565b82525050565b7f507572636861736564205469636b657473000000000000000000000000000000600082015250565b600061168a6011836114e9565b915061169582611654565b602082019050919050565b600060808201905081810360008301526116b9816115e2565b90506116c86020830185611645565b6116d56040830184611645565b81810360608301526116e68161167d565b90509392505050565b60006116fa82611198565b915061170583611198565b925081677fffffffffffffff03831360008312151615611728576117276113d3565b5b817fffffffffffffffffffffffffffffffffffffffffffffffff80000000000000000383126000831216156117605761175f6113d3565b5b828201905092915050565b7f4e487b7100000000000000000000000000000000000000000000000000000000600052601260045260246000fd5b60006117a582611198565b91506117b083611198565b9250826117c0576117bf61176b565b5b600160000383147fffffffffffffffffffffffffffffffffffffffffffffffff8000000000000000831416156117f9576117f86113d3565b5b828205905092915050565b7f4173736f6369617465204661696c656400000000000000000000000000000000600082015250565b600061183a6010836114e9565b915061184582611804565b602082019050919050565b600060208201905081810360008301526118698161182d565b9050919050565b7f434c41494d454400000000000000000000000000000000000000000000000000600082015250565b60006118a66007836114e9565b91506118b182611870565b602082019050919050565b7f5469636b65742066756e64732068617665206265656e20636c61696d65642100600082015250565b60006118f2601f836114e9565b91506118fd826118bc565b602082019050919050565b6000608082019050818103600083015261192181611899565b90506119306020830185611645565b61193d6040830184611645565b818103606083015261194e816118e5565b90509392505050565b60006119628261115f565b915061196d8361115f565b92508261197d5761197c61176b565b5b828206905092915050565b7f4e487b7100000000000000000000000000000000000000000000000000000000600052603260045260246000fd5b7f57494e4e45520000000000000000000000000000000000000000000000000000600082015250565b60006119ed6006836114e9565b91506119f8826119b7565b602082019050919050565b7f5069636b65642057696e6e657200000000000000000000000000000000000000600082015250565b6000611a39600d836114e9565b9150611a4482611a03565b602082019050919050565b60006080820190508181036000830152611a68816119e0565b9050611a776020830185611645565b611a846040830184611645565b8181036060830152611a9581611a2c565b90509392505050565b7f4e487b7100000000000000000000000000000000000000000000000000000000600052604160045260246000fd5b7f5472616e73666572204661696c65640000000000000000000000000000000000600082015250565b6000611b03600f836114e9565b9150611b0e82611acd565b602082019050919050565b60006020820190508181036000830152611b3281611af6565b9050919050565b7f5052495a45204144444544000000000000000000000000000000000000000000600082015250565b6000611b6f600b836114e9565b9150611b7a82611b39565b602082019050919050565b7f5072697a65206173736f63696174656420616e642061646465642e0000000000600082015250565b6000611bbb601b836114e9565b9150611bc682611b85565b602082019050919050565b60006080820190508181036000830152611bea81611b62565b9050611bf96020830185611645565b611c066040830184611645565b8181036060830152611c1781611bae565b90509392505050565b7f4153534f43494154454400000000000000000000000000000000000000000000600082015250565b6000611c56600a836114e9565b9150611c6182611c20565b602082019050919050565b7f5469636b657420507269636520546f6b656e204173736f636961746564000000600082015250565b6000611ca2601d836114e9565b9150611cad82611c6c565b602082019050919050565b60006080820190508181036000830152611cd181611c49565b9050611ce06020830185611645565b611ced6040830184611645565b8181036060830152611cfe81611c95565b90509392505050565b611d1081611198565b82525050565b6000608082019050611d2b6000830187611243565b611d386020830186611243565b611d456040830185611243565b611d526060830184611d07565b95945050505050565b600081519050919050565b600081905092915050565b60005b83811015611d8f578082015181840152602081019050611d74565b83811115611d9e576000848401525b50505050565b6000611daf82611d5b565b611db98185611d66565b9350611dc9818560208601611d71565b80840191505092915050565b6000611de18284611da4565b915081905092915050565b60008160030b9050919050565b611e0281611dec565b8114611e0d57600080fd5b50565b600081519050611e1f81611df9565b92915050565b600060208284031215611e3b57611e3a611193565b5b6000611e4984828501611e10565b91505092915050565b600081549050919050565b60008190508160005260206000209050919050565b60008160001c9050919050565b600073ffffffffffffffffffffffffffffffffffffffff82169050919050565b6000611eb2611ead83611e72565b611e7f565b9050919050565b6000611ec58254611e9f565b9050919050565b6000600182019050919050565b6000611ee482611e52565b611eee8185611278565b9350611ef983611e5d565b8060005b83811015611f3157611f0e82611eb9565b611f1888826112a8565b9750611f2383611ecc565b925050600181019050611efd565b5085935050505092915050565b6000604082019050611f536000830185611169565b8181036020830152611f658184611ed9565b90509392505050565b6000604082019050611f836000830185611243565b611f906020830184611243565b939250505056fea2646970667358221220895b8a73d563f9a9c53ccf6c4acd620fd7b05cbf5ba0ae401e07bba19549bcf264736f6c634300080b0033",
  "linkReferences": {},
  "deployedLinkReferences": {}
}